{
  "_format": "hh-sol-artifact-1",
  "contractName": "Generator",
  "sourceName": "contracts/Generator.sol",
  "abi": [
    {
      "inputs": [],
      "stateMutability": "nonpayable",
      "type": "constructor"
    },
    {
      "inputs": [
        {
          "internalType": "uint256",
          "name": "_secret",
          "type": "uint256"
        }
      ],
      "name": "checkPass",
      "outputs": [
        {
          "internalType": "bool",
          "name": "",
          "type": "bool"
        }
      ],
      "stateMutability": "view",
      "type": "function"
    },
    {
      "inputs": [
        {
          "internalType": "uint256",
          "name": "_p",
          "type": "uint256"
        },
        {
          "internalType": "uint256",
          "name": "_q",
          "type": "uint256"
        },
        {
          "internalType": "uint256",
          "name": "_secret",
          "type": "uint256"
        },
        {
          "internalType": "uint256",
          "name": "_numInstances",
          "type": "uint256"
        }
      ],
      "name": "createAInstance",
      "outputs": [],
      "stateMutability": "nonpayable",
      "type": "function"
    },
    {
      "inputs": [
        {
          "internalType": "uint256",
          "name": "_p",
          "type": "uint256"
        },
        {
          "internalType": "uint256",
          "name": "_q",
          "type": "uint256"
        },
        {
          "internalType": "uint256",
          "name": "_secret",
          "type": "uint256"
        },
        {
          "internalType": "uint256",
          "name": "_numInstances",
          "type": "uint256"
        }
      ],
      "name": "createBInstance",
      "outputs": [],
      "stateMutability": "nonpayable",
      "type": "function"
    },
    {
      "inputs": [
        {
          "internalType": "uint256",
          "name": "_orcid",
          "type": "uint256"
        }
      ],
      "name": "getAllInstances",
      "outputs": [
        {
          "components": [
            {
              "internalType": "uint256",
              "name": "id",
              "type": "uint256"
            },
            {
              "internalType": "string",
              "name": "chain",
              "type": "string"
            },
            {
              "internalType": "uint256",
              "name": "size",
              "type": "uint256"
            },
            {
              "internalType": "uint256",
              "name": "dateCreated",
              "type": "uint256"
            },
            {
              "internalType": "string",
              "name": "solution",
              "type": "string"
            },
            {
              "internalType": "bool",
              "name": "solved",
              "type": "bool"
            },
            {
              "internalType": "uint256",
              "name": "dateSolution",
              "type": "uint256"
            }
          ],
          "internalType": "struct Generator.Instance[]",
          "name": "",
          "type": "tuple[]"
        }
      ],
      "stateMutability": "view",
      "type": "function"
    },
    {
      "inputs": [
        {
          "internalType": "uint256",
          "name": "_secret",
          "type": "uint256"
        }
      ],
      "name": "getDateNumber",
      "outputs": [
        {
          "internalType": "uint256[]",
          "name": "",
          "type": "uint256[]"
        }
      ],
      "stateMutability": "view",
      "type": "function"
    },
    {
      "inputs": [
        {
          "internalType": "uint256",
          "name": "_id",
          "type": "uint256"
        }
      ],
      "name": "getHash",
      "outputs": [
        {
          "internalType": "string",
          "name": "",
          "type": "string"
        },
        {
          "internalType": "string",
          "name": "",
          "type": "string"
        },
        {
          "internalType": "string",
          "name": "",
          "type": "string"
        }
      ],
      "stateMutability": "view",
      "type": "function"
    },
    {
      "inputs": [
        {
          "internalType": "uint256",
          "name": "_id",
          "type": "uint256"
        }
      ],
      "name": "getInstance",
      "outputs": [
        {
          "internalType": "uint256",
          "name": "",
          "type": "uint256"
        },
        {
          "internalType": "string",
          "name": "",
          "type": "string"
        },
        {
          "internalType": "uint256",
          "name": "",
          "type": "uint256"
        },
        {
          "internalType": "uint256",
          "name": "",
          "type": "uint256"
        },
        {
          "internalType": "string",
          "name": "",
          "type": "string"
        },
        {
          "internalType": "bool",
          "name": "",
          "type": "bool"
        },
        {
          "internalType": "uint256",
          "name": "",
          "type": "uint256"
        }
      ],
      "stateMutability": "view",
      "type": "function"
    },
    {
      "inputs": [
        {
          "internalType": "uint256",
          "name": "_secret",
          "type": "uint256"
        }
      ],
      "name": "getRandomNumber",
      "outputs": [
        {
          "internalType": "bytes32",
          "name": "requestId",
          "type": "bytes32"
        }
      ],
      "stateMutability": "nonpayable",
      "type": "function"
    },
    {
      "inputs": [],
      "name": "getRemainingLINK",
      "outputs": [
        {
          "internalType": "uint256",
          "name": "",
          "type": "uint256"
        }
      ],
      "stateMutability": "view",
      "type": "function"
    },
    {
      "inputs": [],
      "name": "randomResult",
      "outputs": [
        {
          "internalType": "uint256",
          "name": "",
          "type": "uint256"
        }
      ],
      "stateMutability": "view",
      "type": "function"
    },
    {
      "inputs": [
        {
          "internalType": "bytes32",
          "name": "requestId",
          "type": "bytes32"
        },
        {
          "internalType": "uint256",
          "name": "randomness",
          "type": "uint256"
        }
      ],
      "name": "rawFulfillRandomness",
      "outputs": [],
      "stateMutability": "nonpayable",
      "type": "function"
    },
    {
      "inputs": [
        {
          "internalType": "uint256",
          "name": "_secret",
          "type": "uint256"
        },
        {
          "internalType": "string",
          "name": "_name",
          "type": "string"
        },
        {
          "internalType": "string",
          "name": "_email",
          "type": "string"
        },
        {
          "internalType": "uint256",
          "name": "_orcid",
          "type": "uint256"
        }
      ],
      "name": "setResearcher",
      "outputs": [],
      "stateMutability": "nonpayable",
      "type": "function"
    },
    {
      "inputs": [
        {
          "internalType": "uint256",
          "name": "_secret",
          "type": "uint256"
        },
        {
          "internalType": "uint256",
          "name": "_id",
          "type": "uint256"
        },
        {
          "internalType": "string",
          "name": "_solution",
          "type": "string"
        },
        {
          "internalType": "string",
          "name": "_algorithm_hash",
          "type": "string"
        },
        {
          "internalType": "string",
          "name": "_hash_method",
          "type": "string"
        }
      ],
      "name": "solveInstance",
      "outputs": [
        {
          "internalType": "bool",
          "name": "",
          "type": "bool"
        }
      ],
      "stateMutability": "nonpayable",
      "type": "function"
    }
  ],
  "bytecode": "0x60c060405234801561001057600080fd5b5073dd3782915140c8f3b190b5d67eac6dc5760c46e973a36085f69e2889c224210f603d836748e7dc00888173ffffffffffffffffffffffffffffffffffffffff1660a08173ffffffffffffffffffffffffffffffffffffffff16815250508073ffffffffffffffffffffffffffffffffffffffff1660808173ffffffffffffffffffffffffffffffffffffffff168152505050507f6c3699283bda56ad74f6b855546325b68d482e983852a7a82979cc4807b641f460001b60058190555067016345785d8a0000600681905550600060088190555060006009819055506003600a81905550610834600b8190555060805160a051612c5161013960003960008181610ef601526118f6015260008181610e480152818161113601526118ba0152612c516000f3fe608060405234801561001057600080fd5b50600436106100cf5760003560e01c80638ed0fbe71161008c5780639878ca2c116100665780639878ca2c14610226578063b37217a414610256578063db7bbdb314610286578063ebd348de146102a2576100cf565b80638ed0fbe7146101d05780638f006527146101ec57806394985ddd1461020a576100cf565b8063070a6e95146100d45780630eea10b21461010457806342619f66146101345780634dde53ab146101525780636b2fafa9146101825780637e8b7e3e146101b4575b600080fd5b6100ee60048036038101906100e99190611bfd565b6102d8565b6040516100fb9190611ce8565b60405180910390f35b61011e60048036038101906101199190611bfd565b610346565b60405161012b9190611d25565b60405180910390f35b61013c610373565b6040516101499190611d4f565b60405180910390f35b61016c60048036038101906101679190611bfd565b610379565b6040516101799190611f77565b60405180910390f35b61019c60048036038101906101979190611bfd565b61061e565b6040516101ab93929190611fe3565b60405180910390f35b6101ce60048036038101906101c9919061202f565b610816565b005b6101ea60048036038101906101e5919061202f565b610b71565b005b6101f4610e44565b6040516102019190611d4f565b60405180910390f35b610224600480360381019061021f91906120cc565b610ef4565b005b610240600480360381019061023b9190612241565b610f90565b60405161024d9190611d25565b60405180910390f35b610270600480360381019061026b9190611bfd565b61112f565b60405161027d919061231f565b60405180910390f35b6102a0600480360381019061029b919061233a565b611270565b005b6102bc60048036038101906102b79190611bfd565b6113e0565b6040516102cf97969594939291906123d9565b60405180910390f35b60606001600083815260200190815260200160002060040180548060200260200160405190810160405280929190818152602001828054801561033a57602002820191906000526020600020905b815481526020019060010190808311610326575b50505050509050919050565b60006001600083815260200190815260200160002060020160009054906101000a900460ff169050919050565b60075481565b60606000600260008481526020019081526020016000206000015490506000600160008381526020019081526020016000206003018054905067ffffffffffffffff8111156103cb576103ca612116565b5b60405190808252806020026020018201604052801561040457816020015b6103f1611a84565b8152602001906001900390816103e95790505b50905060005b6001600084815260200190815260200160002060030180549050811015610613576003600060016000868152602001908152602001600020600301838154811061045757610456612456565b5b906000526020600020015481526020019081526020016000206040518060e001604052908160008201548152602001600182018054610495906124b4565b80601f01602080910402602001604051908101604052809291908181526020018280546104c1906124b4565b801561050e5780601f106104e35761010080835404028352916020019161050e565b820191906000526020600020905b8154815290600101906020018083116104f157829003601f168201915b50505050508152602001600282015481526020016003820154815260200160048201805461053b906124b4565b80601f0160208091040260200160405190810160405280929190818152602001828054610567906124b4565b80156105b45780601f10610589576101008083540402835291602001916105b4565b820191906000526020600020905b81548152906001019060200180831161059757829003601f168201915b505050505081526020016005820160009054906101000a900460ff161515151581526020016006820154815250508282815181106105f5576105f4612456565b5b6020026020010181905250808061060b90612515565b91505061040a565b508092505050919050565b6060806060600460008581526020019081526020016000206000016004600086815260200190815260200160002060010160046000878152602001908152602001600020600201828054610671906124b4565b80601f016020809104026020016040519081016040528092919081815260200182805461069d906124b4565b80156106ea5780601f106106bf576101008083540402835291602001916106ea565b820191906000526020600020905b8154815290600101906020018083116106cd57829003601f168201915b505050505092508180546106fd906124b4565b80601f0160208091040260200160405190810160405280929190818152602001828054610729906124b4565b80156107765780601f1061074b57610100808354040283529160200191610776565b820191906000526020600020905b81548152906001019060200180831161075957829003601f168201915b50505050509150808054610789906124b4565b80601f01602080910402602001604051908101604052809291908181526020018280546107b5906124b4565b80156108025780601f106107d757610100808354040283529160200191610802565b820191906000526020600020905b8154815290600101906020018083116107e557829003601f168201915b505050505090509250925092509193909250565b60006108206115c9565b90506000806096905060005b84811015610b675760006040518060200160405280600081525090506000600190506000805b6001600a54610861919061255e565b8110156108ba578b88888151811061087c5761087b612456565b5b6020026020010151101561089957828061089590612515565b9350505b86806108a490612515565b97505080806108b290612515565b915050610852565b5060005b600a548110156108f7576108e2846108dd6108d886611695565b6116f6565b61187f565b935080806108ef90612515565b9150506108be565b50808061090390612515565b9150505b8987878151811061091b5761091a612456565b5b602002602001015110801561092f57508481105b156109f257858061093f90612515565b96505060005b600a548110156109a1578b88888151811061096357610962612456565b5b6020026020010151101561098057828061097c90612515565b9350505b868061098b90612515565b975050808061099990612515565b915050610945565b5060005b600a548110156109de576109c9846109c46109bf86611695565b6116f6565b61187f565b935080806109d690612515565b9150506109a5565b5080806109ea90612515565b915050610907565b6040518060e0016040528060095481526020018481526020018281526020014281526020016040518060400160405280600a81526020017f556e7265736f6c7665640000000000000000000000000000000000000000000081525081526020016000151581526020016000815250600360006009548152602001908152602001600020600082015181600001556020820151816001019080519060200190610a9b929190611ac3565b5060408201518160020155606082015181600301556080820151816004019080519060200190610acc929190611ac3565b5060a08201518160050160006101000a81548160ff02191690831515021790555060c08201518160060155905050600160008a8152602001908152602001600020600301600954908060018154018082558091505060019003906000526020600020016000909190919091505560096000815480929190610b4c90612515565b91905055505050508080610b5f90612515565b91505061082c565b5050505050505050565b6000610b7b6115c9565b90506000806096905060005b84811015610e3a57600060405180602001604052806000815250905060006001905060005b89878781518110610bc057610bbf612456565b5b6020026020010151108015610bd457508481105b15610bfa578080610be490612515565b9150508580610bf290612515565b965050610bac565b6000811415610c0857600190505b60005b6001826003610c1a9190612592565b610c24919061255e565b811015610c7d578b888881518110610c3f57610c3e612456565b5b60200260200101511015610c5c578280610c5890612515565b9350505b8680610c6790612515565b9750508080610c7590612515565b915050610c0b565b5060005b816003610c8e9190612592565b811015610cc457610caf84610caa610ca586611695565b6116f6565b61187f565b93508080610cbc90612515565b915050610c81565b506040518060e0016040528060095481526020018481526020018281526020014281526020016040518060400160405280600a81526020017f556e7265736f6c7665640000000000000000000000000000000000000000000081525081526020016000151581526020016000815250600360006009548152602001908152602001600020600082015181600001556020820151816001019080519060200190610d6e929190611ac3565b5060408201518160020155606082015181600301556080820151816004019080519060200190610d9f929190611ac3565b5060a08201518160050160006101000a81548160ff02191690831515021790555060c08201518160060155905050600160008a8152602001908152602001600020600301600954908060018154018082558091505060019003906000526020600020016000909190919091505560096000815480929190610e1f90612515565b91905055505050508080610e3290612515565b915050610b87565b5050505050505050565b60007f000000000000000000000000000000000000000000000000000000000000000073ffffffffffffffffffffffffffffffffffffffff166370a08231306040518263ffffffff1660e01b8152600401610e9f919061262d565b60206040518083038186803b158015610eb757600080fd5b505afa158015610ecb573d6000803e3d6000fd5b505050506040513d601f19601f82011682018060405250810190610eef919061265d565b905090565b7f000000000000000000000000000000000000000000000000000000000000000073ffffffffffffffffffffffffffffffffffffffff163373ffffffffffffffffffffffffffffffffffffffff1614610f82576040517f08c379a0000000000000000000000000000000000000000000000000000000008152600401610f79906126d6565b60405180910390fd5b610f8c82826118ab565b5050565b6000806000905060005b60001515821515148015610fc65750600160008981526020019081526020016000206003018054905081105b1561101d5786600160008a81526020019081526020016000206003018281548110610ff457610ff3612456565b5b9060005260206000200154141561100a57600191505b808061101590612515565b915050610f9a565b6001151582151514156111215785600360008981526020019081526020016000206004019080519060200190611054929190611ac3565b5060016003600089815260200190815260200160002060050160006101000a81548160ff021916908315150217905550426003600089815260200190815260200160002060060181905550856004600089815260200190815260200160002060000190805190602001906110c9929190611ac3565b50846004600089815260200190815260200160002060010190805190602001906110f4929190611ac3565b508360046000898152602001908152602001600020600201908051906020019061111f929190611ac3565b505b819250505095945050505050565b60006006547f000000000000000000000000000000000000000000000000000000000000000073ffffffffffffffffffffffffffffffffffffffff166370a08231306040518263ffffffff1660e01b815260040161118d919061262d565b60206040518083038186803b1580156111a557600080fd5b505afa1580156111b9573d6000803e3d6000fd5b505050506040513d601f19601f820116820180604052508101906111dd919061265d565b101561121e576040517f08c379a000000000000000000000000000000000000000000000000000000000815260040161121590612768565b60405180910390fd5b600160008381526020019081526020016000206004014290806001815401808255809150506001900390600052602060002001600090919091909150556112696005546006546118b6565b9050919050565b6001600085815260200190815260200160002060020160009054906101000a900460ff16156112d4576040517f08c379a00000000000000000000000000000000000000000000000000000000081526004016112cb906127fa565b60405180910390fd5b60606040518060a001604052808581526020018481526020016001151581526020018281526020018281525060016000878152602001908152602001600020600082015181600001908051906020019061132f929190611ac3565b50602082015181600101908051906020019061134c929190611ac3565b5060408201518160020160006101000a81548160ff0219169083151502179055506060820151816003019080519060200190611389929190611b49565b5060808201518160040190805190602001906113a6929190611b49565b5090505060405180602001604052808681525060026000848152602001908152602001600020600082015181600001559050505050505050565b6000606060008060606000806003600089815260200190815260200160002060000154600360008a8152602001908152602001600020600101600360008b815260200190815260200160002060020154600360008c815260200190815260200160002060030154600360008d8152602001908152602001600020600401600360008e815260200190815260200160002060050160009054906101000a900460ff16600360008f8152602001908152602001600020600601548580546114a4906124b4565b80601f01602080910402602001604051908101604052809291908181526020018280546114d0906124b4565b801561151d5780601f106114f25761010080835404028352916020019161151d565b820191906000526020600020905b81548152906001019060200180831161150057829003601f168201915b50505050509550828054611530906124b4565b80601f016020809104026020016040519081016040528092919081815260200182805461155c906124b4565b80156115a95780601f1061157e576101008083540402835291602001916115a9565b820191906000526020600020905b81548152906001019060200180831161158c57829003601f168201915b505050505092509650965096509650965096509650919395979092949650565b6060600b5467ffffffffffffffff8111156115e7576115e6612116565b5b6040519080825280602002602001820160405280156116155781602001602082028036833780820191505090505b50905060005b600b548110156116915760646007548260405160200161163c92919061281a565b6040516020818303038152906040528051906020012060001c61165f9190612872565b82828151811061167257611671612456565b5b602002602001018181525050808061168990612515565b91505061161b565b5090565b6000808242336008546040516020016116b09392919061290c565b6040516020818303038152906040528051906020012060001c6116d39190612872565b9050600860008154809291906116e890612515565b919050555080915050919050565b6060600082141561173e576040518060400160405280600181526020017f3000000000000000000000000000000000000000000000000000000000000000815250905061187a565b600082905060005b6000821461177057808061175990612515565b915050600a826117699190612949565b9150611746565b60008167ffffffffffffffff81111561178c5761178b612116565b5b6040519080825280601f01601f1916602001820160405280156117be5781602001600182028036833780820191505090505b50905060008290505b60008614611872576001816117dc919061255e565b90506000600a80886117ee9190612949565b6117f89190612592565b87611803919061255e565b603061180f9190612987565b905060008160f81b90508084848151811061182d5761182c612456565b5b60200101907effffffffffffffffffffffffffffffffffffffffffffffffffffffffffffff1916908160001a905350600a886118699190612949565b975050506117c7565b819450505050505b919050565b606082826040516020016118949291906129fa565b604051602081830303815290604052905092915050565b806007819055505050565b60007f000000000000000000000000000000000000000000000000000000000000000073ffffffffffffffffffffffffffffffffffffffff16634000aea07f00000000000000000000000000000000000000000000000000000000000000008486600060405160200161192a929190612a1e565b6040516020818303038152906040526040518463ffffffff1660e01b815260040161195793929190612a9c565b602060405180830381600087803b15801561197157600080fd5b505af1158015611985573d6000803e3d6000fd5b505050506040513d601f19601f820116820180604052508101906119a99190612b06565b5060006119cb8460003060008089815260200190815260200160002054611a15565b90506001600080868152602001908152602001600020546119ec9190612b33565b60008086815260200190815260200160002081905550611a0c8482611a51565b91505092915050565b600084848484604051602001611a2e9493929190612b89565b6040516020818303038152906040528051906020012060001c9050949350505050565b60008282604051602001611a66929190612bef565b60405160208183030381529060405280519060200120905092915050565b6040518060e001604052806000815260200160608152602001600081526020016000815260200160608152602001600015158152602001600081525090565b828054611acf906124b4565b90600052602060002090601f016020900481019282611af15760008555611b38565b82601f10611b0a57805160ff1916838001178555611b38565b82800160010185558215611b38579182015b82811115611b37578251825591602001919060010190611b1c565b5b509050611b459190611b96565b5090565b828054828255906000526020600020908101928215611b85579160200282015b82811115611b84578251825591602001919060010190611b69565b5b509050611b929190611b96565b5090565b5b80821115611baf576000816000905550600101611b97565b5090565b6000604051905090565b600080fd5b600080fd5b6000819050919050565b611bda81611bc7565b8114611be557600080fd5b50565b600081359050611bf781611bd1565b92915050565b600060208284031215611c1357611c12611bbd565b5b6000611c2184828501611be8565b91505092915050565b600081519050919050565b600082825260208201905092915050565b6000819050602082019050919050565b611c5f81611bc7565b82525050565b6000611c718383611c56565b60208301905092915050565b6000602082019050919050565b6000611c9582611c2a565b611c9f8185611c35565b9350611caa83611c46565b8060005b83811015611cdb578151611cc28882611c65565b9750611ccd83611c7d565b925050600181019050611cae565b5085935050505092915050565b60006020820190508181036000830152611d028184611c8a565b905092915050565b60008115159050919050565b611d1f81611d0a565b82525050565b6000602082019050611d3a6000830184611d16565b92915050565b611d4981611bc7565b82525050565b6000602082019050611d646000830184611d40565b92915050565b600081519050919050565b600082825260208201905092915050565b6000819050602082019050919050565b600081519050919050565b600082825260208201905092915050565b60005b83811015611dd0578082015181840152602081019050611db5565b83811115611ddf576000848401525b50505050565b6000601f19601f8301169050919050565b6000611e0182611d96565b611e0b8185611da1565b9350611e1b818560208601611db2565b611e2481611de5565b840191505092915050565b611e3881611d0a565b82525050565b600060e083016000830151611e566000860182611c56565b5060208301518482036020860152611e6e8282611df6565b9150506040830151611e836040860182611c56565b506060830151611e966060860182611c56565b5060808301518482036080860152611eae8282611df6565b91505060a0830151611ec360a0860182611e2f565b5060c0830151611ed660c0860182611c56565b508091505092915050565b6000611eed8383611e3e565b905092915050565b6000602082019050919050565b6000611f0d82611d6a565b611f178185611d75565b935083602082028501611f2985611d86565b8060005b85811015611f655784840389528151611f468582611ee1565b9450611f5183611ef5565b925060208a01995050600181019050611f2d565b50829750879550505050505092915050565b60006020820190508181036000830152611f918184611f02565b905092915050565b600082825260208201905092915050565b6000611fb582611d96565b611fbf8185611f99565b9350611fcf818560208601611db2565b611fd881611de5565b840191505092915050565b60006060820190508181036000830152611ffd8186611faa565b905081810360208301526120118185611faa565b905081810360408301526120258184611faa565b9050949350505050565b6000806000806080858703121561204957612048611bbd565b5b600061205787828801611be8565b945050602061206887828801611be8565b935050604061207987828801611be8565b925050606061208a87828801611be8565b91505092959194509250565b6000819050919050565b6120a981612096565b81146120b457600080fd5b50565b6000813590506120c6816120a0565b92915050565b600080604083850312156120e3576120e2611bbd565b5b60006120f1858286016120b7565b925050602061210285828601611be8565b9150509250929050565b600080fd5b600080fd5b7f4e487b7100000000000000000000000000000000000000000000000000000000600052604160045260246000fd5b61214e82611de5565b810181811067ffffffffffffffff8211171561216d5761216c612116565b5b80604052505050565b6000612180611bb3565b905061218c8282612145565b919050565b600067ffffffffffffffff8211156121ac576121ab612116565b5b6121b582611de5565b9050602081019050919050565b82818337600083830152505050565b60006121e46121df84612191565b612176565b905082815260208101848484011115612200576121ff612111565b5b61220b8482856121c2565b509392505050565b600082601f8301126122285761222761210c565b5b81356122388482602086016121d1565b91505092915050565b600080600080600060a0868803121561225d5761225c611bbd565b5b600061226b88828901611be8565b955050602061227c88828901611be8565b945050604086013567ffffffffffffffff81111561229d5761229c611bc2565b5b6122a988828901612213565b935050606086013567ffffffffffffffff8111156122ca576122c9611bc2565b5b6122d688828901612213565b925050608086013567ffffffffffffffff8111156122f7576122f6611bc2565b5b61230388828901612213565b9150509295509295909350565b61231981612096565b82525050565b60006020820190506123346000830184612310565b92915050565b6000806000806080858703121561235457612353611bbd565b5b600061236287828801611be8565b945050602085013567ffffffffffffffff81111561238357612382611bc2565b5b61238f87828801612213565b935050604085013567ffffffffffffffff8111156123b0576123af611bc2565b5b6123bc87828801612213565b92505060606123cd87828801611be8565b91505092959194509250565b600060e0820190506123ee600083018a611d40565b81810360208301526124008189611faa565b905061240f6040830188611d40565b61241c6060830187611d40565b818103608083015261242e8186611faa565b905061243d60a0830185611d16565b61244a60c0830184611d40565b98975050505050505050565b7f4e487b7100000000000000000000000000000000000000000000000000000000600052603260045260246000fd5b7f4e487b7100000000000000000000000000000000000000000000000000000000600052602260045260246000fd5b600060028204905060018216806124cc57607f821691505b602082108114156124e0576124df612485565b5b50919050565b7f4e487b7100000000000000000000000000000000000000000000000000000000600052601160045260246000fd5b600061252082611bc7565b91507fffffffffffffffffffffffffffffffffffffffffffffffffffffffffffffffff821415612553576125526124e6565b5b600182019050919050565b600061256982611bc7565b915061257483611bc7565b925082821015612587576125866124e6565b5b828203905092915050565b600061259d82611bc7565b91506125a883611bc7565b9250817fffffffffffffffffffffffffffffffffffffffffffffffffffffffffffffffff04831182151516156125e1576125e06124e6565b5b828202905092915050565b600073ffffffffffffffffffffffffffffffffffffffff82169050919050565b6000612617826125ec565b9050919050565b6126278161260c565b82525050565b6000602082019050612642600083018461261e565b92915050565b60008151905061265781611bd1565b92915050565b60006020828403121561267357612672611bbd565b5b600061268184828501612648565b91505092915050565b7f4f6e6c7920565246436f6f7264696e61746f722063616e2066756c66696c6c00600082015250565b60006126c0601f83611f99565b91506126cb8261268a565b602082019050919050565b600060208201905081810360008301526126ef816126b3565b9050919050565b7f4e6f7420656e6f756768204c494e4b202d2066696c6c20636f6e74726163742060008201527f7769746820666175636574000000000000000000000000000000000000000000602082015250565b6000612752602b83611f99565b915061275d826126f6565b604082019050919050565b6000602082019050818103600083015261278181612745565b9050919050565b7f54686973204f5243494420697320616c7265616479207265676973746572656460008201527f2e00000000000000000000000000000000000000000000000000000000000000602082015250565b60006127e4602183611f99565b91506127ef82612788565b604082019050919050565b60006020820190508181036000830152612813816127d7565b9050919050565b600060408201905061282f6000830185611d40565b61283c6020830184611d40565b9392505050565b7f4e487b7100000000000000000000000000000000000000000000000000000000600052601260045260246000fd5b600061287d82611bc7565b915061288883611bc7565b92508261289857612897612843565b5b828206905092915050565b6000819050919050565b6128be6128b982611bc7565b6128a3565b82525050565b60008160601b9050919050565b60006128dc826128c4565b9050919050565b60006128ee826128d1565b9050919050565b6129066129018261260c565b6128e3565b82525050565b600061291882866128ad565b60208201915061292882856128f5565b60148201915061293882846128ad565b602082019150819050949350505050565b600061295482611bc7565b915061295f83611bc7565b92508261296f5761296e612843565b5b828204905092915050565b600060ff82169050919050565b60006129928261297a565b915061299d8361297a565b92508260ff038211156129b3576129b26124e6565b5b828201905092915050565b600081905092915050565b60006129d482611d96565b6129de81856129be565b93506129ee818560208601611db2565b80840191505092915050565b6000612a0682856129c9565b9150612a1282846129c9565b91508190509392505050565b6000604082019050612a336000830185612310565b612a406020830184611d40565b9392505050565b600081519050919050565b600082825260208201905092915050565b6000612a6e82612a47565b612a788185612a52565b9350612a88818560208601611db2565b612a9181611de5565b840191505092915050565b6000606082019050612ab1600083018661261e565b612abe6020830185611d40565b8181036040830152612ad08184612a63565b9050949350505050565b612ae381611d0a565b8114612aee57600080fd5b50565b600081519050612b0081612ada565b92915050565b600060208284031215612b1c57612b1b611bbd565b5b6000612b2a84828501612af1565b91505092915050565b6000612b3e82611bc7565b9150612b4983611bc7565b9250827fffffffffffffffffffffffffffffffffffffffffffffffffffffffffffffffff03821115612b7e57612b7d6124e6565b5b828201905092915050565b6000608082019050612b9e6000830187612310565b612bab6020830186611d40565b612bb8604083018561261e565b612bc56060830184611d40565b95945050505050565b6000819050919050565b612be9612be482612096565b612bce565b82525050565b6000612bfb8285612bd8565b602082019150612c0b82846128ad565b602082019150819050939250505056fea2646970667358221220b97392f179a4d48fafcb823fc9b6ac5fb82a55438b65c65be11629a530851e3164736f6c63430008090033",
  "linkReferences": {},
  "deployedLinkReferences": {}
}