{
  "_format": "hh-sol-artifact-1",
  "contractName": "Generator",
  "sourceName": "contracts/Generator.sol",
  "abi": [
    {
      "inputs": [],
      "stateMutability": "nonpayable",
      "type": "constructor"
    },
    {
      "inputs": [
        {
          "internalType": "uint256",
          "name": "_secret",
          "type": "uint256"
        }
      ],
      "name": "checkPass",
      "outputs": [
        {
          "internalType": "bool",
          "name": "",
          "type": "bool"
        }
      ],
      "stateMutability": "view",
      "type": "function"
    },
    {
      "inputs": [
        {
          "internalType": "uint256",
          "name": "_p",
          "type": "uint256"
        },
        {
          "internalType": "uint256",
          "name": "_q",
          "type": "uint256"
        },
        {
          "internalType": "uint256",
          "name": "_secret",
          "type": "uint256"
        },
        {
          "internalType": "uint256",
          "name": "_numInstances",
          "type": "uint256"
        }
      ],
      "name": "createAInstance",
      "outputs": [],
      "stateMutability": "nonpayable",
      "type": "function"
    },
    {
      "inputs": [
        {
          "internalType": "uint256",
          "name": "_p",
          "type": "uint256"
        },
        {
          "internalType": "uint256",
          "name": "_q",
          "type": "uint256"
        },
        {
          "internalType": "uint256",
          "name": "_secret",
          "type": "uint256"
        },
        {
          "internalType": "uint256",
          "name": "_numInstances",
          "type": "uint256"
        }
      ],
      "name": "createBInstance",
      "outputs": [],
      "stateMutability": "nonpayable",
      "type": "function"
    },
    {
      "inputs": [
        {
          "internalType": "uint256",
          "name": "_orcid",
          "type": "uint256"
        }
      ],
      "name": "getAllInstances",
      "outputs": [
        {
          "components": [
            {
              "internalType": "uint256",
              "name": "id",
              "type": "uint256"
            },
            {
              "internalType": "string",
              "name": "chain",
              "type": "string"
            },
            {
              "internalType": "uint256",
              "name": "size",
              "type": "uint256"
            },
            {
              "internalType": "uint256",
              "name": "dateCreated",
              "type": "uint256"
            },
            {
              "internalType": "string",
              "name": "solution",
              "type": "string"
            },
            {
              "internalType": "bool",
              "name": "solved",
              "type": "bool"
            },
            {
              "internalType": "uint256",
              "name": "dateSolution",
              "type": "uint256"
            }
          ],
          "internalType": "struct Generator.Instance[]",
          "name": "",
          "type": "tuple[]"
        }
      ],
      "stateMutability": "view",
      "type": "function"
    },
    {
      "inputs": [
        {
          "internalType": "uint256",
          "name": "_secret",
          "type": "uint256"
        }
      ],
      "name": "getDateNumber",
      "outputs": [
        {
          "internalType": "uint256[]",
          "name": "",
          "type": "uint256[]"
        }
      ],
      "stateMutability": "view",
      "type": "function"
    },
    {
      "inputs": [
        {
          "internalType": "uint256",
          "name": "_id",
          "type": "uint256"
        }
      ],
      "name": "getHash",
      "outputs": [
        {
          "internalType": "string",
          "name": "",
          "type": "string"
        },
        {
          "internalType": "string",
          "name": "",
          "type": "string"
        },
        {
          "internalType": "string",
          "name": "",
          "type": "string"
        }
      ],
      "stateMutability": "view",
      "type": "function"
    },
    {
      "inputs": [
        {
          "internalType": "uint256",
          "name": "_id",
          "type": "uint256"
        }
      ],
      "name": "getInstance",
      "outputs": [
        {
          "internalType": "uint256",
          "name": "",
          "type": "uint256"
        },
        {
          "internalType": "string",
          "name": "",
          "type": "string"
        },
        {
          "internalType": "uint256",
          "name": "",
          "type": "uint256"
        },
        {
          "internalType": "uint256",
          "name": "",
          "type": "uint256"
        },
        {
          "internalType": "string",
          "name": "",
          "type": "string"
        },
        {
          "internalType": "bool",
          "name": "",
          "type": "bool"
        },
        {
          "internalType": "uint256",
          "name": "",
          "type": "uint256"
        }
      ],
      "stateMutability": "view",
      "type": "function"
    },
    {
      "inputs": [
        {
          "internalType": "uint256",
          "name": "_secret",
          "type": "uint256"
        }
      ],
      "name": "getRandomNumber",
      "outputs": [
        {
          "internalType": "bytes32",
          "name": "requestId",
          "type": "bytes32"
        }
      ],
      "stateMutability": "nonpayable",
      "type": "function"
    },
    {
      "inputs": [],
      "name": "getRemainingLINK",
      "outputs": [
        {
          "internalType": "uint256",
          "name": "",
          "type": "uint256"
        }
      ],
      "stateMutability": "view",
      "type": "function"
    },
    {
      "inputs": [],
      "name": "randomResult",
      "outputs": [
        {
          "internalType": "uint256",
          "name": "",
          "type": "uint256"
        }
      ],
      "stateMutability": "view",
      "type": "function"
    },
    {
      "inputs": [
        {
          "internalType": "bytes32",
          "name": "requestId",
          "type": "bytes32"
        },
        {
          "internalType": "uint256",
          "name": "randomness",
          "type": "uint256"
        }
      ],
      "name": "rawFulfillRandomness",
      "outputs": [],
      "stateMutability": "nonpayable",
      "type": "function"
    },
    {
      "inputs": [
        {
          "internalType": "uint256",
          "name": "_secret",
          "type": "uint256"
        },
        {
          "internalType": "string",
          "name": "_name",
          "type": "string"
        },
        {
          "internalType": "string",
          "name": "_email",
          "type": "string"
        },
        {
          "internalType": "uint256",
          "name": "_orcid",
          "type": "uint256"
        }
      ],
      "name": "setResearcher",
      "outputs": [],
      "stateMutability": "nonpayable",
      "type": "function"
    },
    {
      "inputs": [
        {
          "internalType": "uint256",
          "name": "_secret",
          "type": "uint256"
        },
        {
          "internalType": "uint256",
          "name": "_id",
          "type": "uint256"
        },
        {
          "internalType": "string",
          "name": "_solution",
          "type": "string"
        },
        {
          "internalType": "string",
          "name": "_algorithm_hash",
          "type": "string"
        },
        {
          "internalType": "string",
          "name": "_hash_method",
          "type": "string"
        }
      ],
      "name": "solveInstance",
      "outputs": [
        {
          "internalType": "bool",
          "name": "",
          "type": "bool"
        }
      ],
      "stateMutability": "nonpayable",
      "type": "function"
    }
  ],
  "bytecode": "0x60c060405234801561001057600080fd5b5073dd3782915140c8f3b190b5d67eac6dc5760c46e973a36085f69e2889c224210f603d836748e7dc00888173ffffffffffffffffffffffffffffffffffffffff1660a08173ffffffffffffffffffffffffffffffffffffffff1660601b815250508073ffffffffffffffffffffffffffffffffffffffff1660808173ffffffffffffffffffffffffffffffffffffffff1660601b8152505050507f6c3699283bda56ad74f6b855546325b68d482e983852a7a82979cc4807b641f460001b60058190555067016345785d8a0000600681905550600060088190555060006009819055506003600a81905550610834600b8190555060805160601c60a05160601c612bf961013e6000396000818161101801526119e9015260008181610f6a01526119ad0152612bf96000f3fe608060405234801561001057600080fd5b50600436106100cf5760003560e01c80638ed0fbe71161008c5780639878ca2c116100665780639878ca2c14610226578063b37217a414610256578063db7bbdb314610286578063ebd348de146102a2576100cf565b80638ed0fbe7146101d05780638f006527146101ec57806394985ddd1461020a576100cf565b8063070a6e95146100d45780630eea10b21461010457806342619f66146101345780634dde53ab146101525780636b2fafa9146101825780637e8b7e3e146101b4575b600080fd5b6100ee60048036038101906100e99190611dc7565b6102d8565b6040516100fb9190612499565b60405180910390f35b61011e60048036038101906101199190611dc7565b610346565b60405161012b91906124bb565b60405180910390f35b61013c610373565b60405161014991906125eb565b60405180910390f35b61016c60048036038101906101679190611dc7565b610379565b6040516101799190612477565b60405180910390f35b61019c60048036038101906101979190611dc7565b610690565b6040516101ab9392919061255f565b60405180910390f35b6101ce60048036038101906101c99190611f6b565b610888565b005b6101ea60048036038101906101e59190611f6b565b610c55565b005b6101f4610f66565b60405161020191906125eb565b60405180910390f35b610224600480360381019061021f9190611d8b565b611016565b005b610240600480360381019061023b9190611eac565b6110b2565b60405161024d91906124bb565b60405180910390f35b610270600480360381019061026b9190611dc7565b611277565b60405161027d91906124d6565b60405180910390f35b6102a0600480360381019061029b9190611e19565b6112cb565b005b6102bc60048036038101906102b79190611dc7565b61143b565b6040516102cf9796959493929190612606565b60405180910390f35b60606001600083815260200190815260200160002060040180548060200260200160405190810160405280929190818152602001828054801561033a57602002820191906000526020600020905b815481526020019060010190808311610326575b50505050509050919050565b60006001600083815260200190815260200160002060020160009054906101000a900460ff169050919050565b60075481565b60606000600260008481526020019081526020016000206000015490506000600160008381526020019081526020016000206003018054905067ffffffffffffffff8111156103f1577f4e487b7100000000000000000000000000000000000000000000000000000000600052604160045260246000fd5b60405190808252806020026020018201604052801561042a57816020015b610417611b77565b81526020019060019003908161040f5790505b50905060005b600160008481526020019081526020016000206003018054905081101561068557600360006001600086815260200190815260200160002060030183815481106104a3577f4e487b7100000000000000000000000000000000000000000000000000000000600052603260045260246000fd5b906000526020600020015481526020019081526020016000206040518060e0016040529081600082015481526020016001820180546104e1906129c0565b80601f016020809104026020016040519081016040528092919081815260200182805461050d906129c0565b801561055a5780601f1061052f5761010080835404028352916020019161055a565b820191906000526020600020905b81548152906001019060200180831161053d57829003601f168201915b505050505081526020016002820154815260200160038201548152602001600482018054610587906129c0565b80601f01602080910402602001604051908101604052809291908181526020018280546105b3906129c0565b80156106005780601f106105d557610100808354040283529160200191610600565b820191906000526020600020905b8154815290600101906020018083116105e357829003601f168201915b505050505081526020016005820160009054906101000a900460ff16151515158152602001600682015481525050828281518110610667577f4e487b7100000000000000000000000000000000000000000000000000000000600052603260045260246000fd5b6020026020010181905250808061067d906129f2565b915050610430565b508092505050919050565b60608060606004600085815260200190815260200160002060000160046000868152602001908152602001600020600101600460008781526020019081526020016000206002018280546106e3906129c0565b80601f016020809104026020016040519081016040528092919081815260200182805461070f906129c0565b801561075c5780601f106107315761010080835404028352916020019161075c565b820191906000526020600020905b81548152906001019060200180831161073f57829003601f168201915b5050505050925081805461076f906129c0565b80601f016020809104026020016040519081016040528092919081815260200182805461079b906129c0565b80156107e85780601f106107bd576101008083540402835291602001916107e8565b820191906000526020600020905b8154815290600101906020018083116107cb57829003601f168201915b505050505091508080546107fb906129c0565b80601f0160208091040260200160405190810160405280929190818152602001828054610827906129c0565b80156108745780601f1061084957610100808354040283529160200191610874565b820191906000526020600020905b81548152906001019060200180831161085757829003601f168201915b505050505090509250925092509193909250565b6000610892611624565b90506000806064905060005b84811015610c4b5760006040518060200160405280600081525090506000600190506000805b6001600a546108d391906128eb565b811015610952578b888881518110610914577f4e487b7100000000000000000000000000000000000000000000000000000000600052603260045260246000fd5b6020026020010151101561093157828061092d906129f2565b9350505b868061093c906129f2565b975050808061094a906129f2565b9150506108c4565b5060005b600a5481101561098f5761097a846109756109708661173c565b61179d565b611972565b93508080610987906129f2565b915050610956565b50808061099b906129f2565b9150505b898787815181106109d9577f4e487b7100000000000000000000000000000000000000000000000000000000600052603260045260246000fd5b60200260200101511080156109ed57508481105b15610ad65785806109fd906129f2565b96505060005b600a54811015610a85578b888881518110610a47577f4e487b7100000000000000000000000000000000000000000000000000000000600052603260045260246000fd5b60200260200101511015610a64578280610a60906129f2565b9350505b8680610a6f906129f2565b9750508080610a7d906129f2565b915050610a03565b5060005b600a54811015610ac257610aad84610aa8610aa38661173c565b61179d565b611972565b93508080610aba906129f2565b915050610a89565b508080610ace906129f2565b91505061099f565b6040518060e0016040528060095481526020018481526020018281526020014281526020016040518060400160405280600a81526020017f556e7265736f6c7665640000000000000000000000000000000000000000000081525081526020016000151581526020016000815250600360006009548152602001908152602001600020600082015181600001556020820151816001019080519060200190610b7f929190611bb6565b5060408201518160020155606082015181600301556080820151816004019080519060200190610bb0929190611bb6565b5060a08201518160050160006101000a81548160ff02191690831515021790555060c08201518160060155905050600160008a8152602001908152602001600020600301600954908060018154018082558091505060019003906000526020600020016000909190919091505560096000815480929190610c30906129f2565b91905055505050508080610c43906129f2565b91505061089e565b5050505050505050565b6000610c5f611624565b90506000806064905060005b84811015610f5c57600060405180602001604052806000815250905060006001905060005b89878781518110610cca577f4e487b7100000000000000000000000000000000000000000000000000000000600052603260045260246000fd5b6020026020010151108015610cde57508481105b15610d04578080610cee906129f2565b9150508580610cfc906129f2565b965050610c90565b60005b6001826003610d169190612891565b610d2091906128eb565b811015610d9f578b888881518110610d61577f4e487b7100000000000000000000000000000000000000000000000000000000600052603260045260246000fd5b60200260200101511015610d7e578280610d7a906129f2565b9350505b8680610d89906129f2565b9750508080610d97906129f2565b915050610d07565b5060005b816003610db09190612891565b811015610de657610dd184610dcc610dc78661173c565b61179d565b611972565b93508080610dde906129f2565b915050610da3565b506040518060e0016040528060095481526020018481526020018281526020014281526020016040518060400160405280600a81526020017f556e7265736f6c7665640000000000000000000000000000000000000000000081525081526020016000151581526020016000815250600360006009548152602001908152602001600020600082015181600001556020820151816001019080519060200190610e90929190611bb6565b5060408201518160020155606082015181600301556080820151816004019080519060200190610ec1929190611bb6565b5060a08201518160050160006101000a81548160ff02191690831515021790555060c08201518160060155905050600160008a8152602001908152602001600020600301600954908060018154018082558091505060019003906000526020600020016000909190919091505560096000815480929190610f41906129f2565b91905055505050508080610f54906129f2565b915050610c6b565b5050505050505050565b60007f000000000000000000000000000000000000000000000000000000000000000073ffffffffffffffffffffffffffffffffffffffff166370a08231306040518263ffffffff1660e01b8152600401610fc1919061241e565b60206040518083038186803b158015610fd957600080fd5b505afa158015610fed573d6000803e3d6000fd5b505050506040513d601f19601f820116820180604052508101906110119190611df0565b905090565b7f000000000000000000000000000000000000000000000000000000000000000073ffffffffffffffffffffffffffffffffffffffff163373ffffffffffffffffffffffffffffffffffffffff16146110a4576040517f08c379a000000000000000000000000000000000000000000000000000000000815260040161109b906125ab565b60405180910390fd5b6110ae828261199e565b5050565b6000806000905060005b600015158215151480156110e85750600160008981526020019081526020016000206003018054905081105b156111655786600160008a8152602001908152602001600020600301828154811061113c577f4e487b7100000000000000000000000000000000000000000000000000000000600052603260045260246000fd5b9060005260206000200154141561115257600191505b808061115d906129f2565b9150506110bc565b600115158215151415611269578560036000898152602001908152602001600020600401908051906020019061119c929190611bb6565b5060016003600089815260200190815260200160002060050160006101000a81548160ff02191690831515021790555042600360008981526020019081526020016000206006018190555085600460008981526020019081526020016000206000019080519060200190611211929190611bb6565b508460046000898152602001908152602001600020600101908051906020019061123c929190611bb6565b5083600460008981526020019081526020016000206002019080519060200190611267929190611bb6565b505b819250505095945050505050565b6000600160008381526020019081526020016000206004014290806001815401808255809150506001900390600052602060002001600090919091909150556112c46005546006546119a9565b9050919050565b6001600085815260200190815260200160002060020160009054906101000a900460ff161561132f576040517f08c379a0000000000000000000000000000000000000000000000000000000008152600401611326906125cb565b60405180910390fd5b60606040518060a001604052808581526020018481526020016001151581526020018281526020018281525060016000878152602001908152602001600020600082015181600001908051906020019061138a929190611bb6565b5060208201518160010190805190602001906113a7929190611bb6565b5060408201518160020160006101000a81548160ff02191690831515021790555060608201518160030190805190602001906113e4929190611c3c565b506080820151816004019080519060200190611401929190611c3c565b5090505060405180602001604052808681525060026000848152602001908152602001600020600082015181600001559050505050505050565b6000606060008060606000806003600089815260200190815260200160002060000154600360008a8152602001908152602001600020600101600360008b815260200190815260200160002060020154600360008c815260200190815260200160002060030154600360008d8152602001908152602001600020600401600360008e815260200190815260200160002060050160009054906101000a900460ff16600360008f8152602001908152602001600020600601548580546114ff906129c0565b80601f016020809104026020016040519081016040528092919081815260200182805461152b906129c0565b80156115785780601f1061154d57610100808354040283529160200191611578565b820191906000526020600020905b81548152906001019060200180831161155b57829003601f168201915b5050505050955082805461158b906129c0565b80601f01602080910402602001604051908101604052809291908181526020018280546115b7906129c0565b80156116045780601f106115d957610100808354040283529160200191611604565b820191906000526020600020905b8154815290600101906020018083116115e757829003601f168201915b505050505092509650965096509650965096509650919395979092949650565b6060600b5467ffffffffffffffff811115611668577f4e487b7100000000000000000000000000000000000000000000000000000000600052604160045260246000fd5b6040519080825280602002602001820160405280156116965781602001602082028036833780820191505090505b50905060005b600b54811015611738576064600754826040516020016116bd929190612683565b6040516020818303038152906040528051906020012060001c6116e09190612a73565b828281518110611719577f4e487b7100000000000000000000000000000000000000000000000000000000600052603260045260246000fd5b6020026020010181815250508080611730906129f2565b91505061169c565b5090565b600080824233600854604051602001611757939291906123e1565b6040516020818303038152906040528051906020012060001c61177a9190612a73565b90506008600081548092919061178f906129f2565b919050555080915050919050565b606060008214156117e5576040518060400160405280600181526020017f3000000000000000000000000000000000000000000000000000000000000000815250905061196d565b600082905060005b60008214611817578080611800906129f2565b915050600a826118109190612860565b91506117ed565b60008167ffffffffffffffff811115611859577f4e487b7100000000000000000000000000000000000000000000000000000000600052604160045260246000fd5b6040519080825280601f01601f19166020018201604052801561188b5781602001600182028036833780820191505090505b50905060008290505b60008614611965576001816118a991906128eb565b90506000600a80886118bb9190612860565b6118c59190612891565b876118d091906128eb565b60306118dc9190612829565b905060008160f81b905080848481518110611920577f4e487b7100000000000000000000000000000000000000000000000000000000600052603260045260246000fd5b60200101907effffffffffffffffffffffffffffffffffffffffffffffffffffffffffffff1916908160001a905350600a8861195c9190612860565b97505050611894565b819450505050505b919050565b606082826040516020016119879291906123bd565b604051602081830303815290604052905092915050565b806007819055505050565b60007f000000000000000000000000000000000000000000000000000000000000000073ffffffffffffffffffffffffffffffffffffffff16634000aea07f000000000000000000000000000000000000000000000000000000000000000084866000604051602001611a1d9291906124f1565b6040516020818303038152906040526040518463ffffffff1660e01b8152600401611a4a93929190612439565b602060405180830381600087803b158015611a6457600080fd5b505af1158015611a78573d6000803e3d6000fd5b505050506040513d601f19601f82011682018060405250810190611a9c9190611d62565b506000611abe8460003060008089815260200190815260200160002054611b08565b9050600160008086815260200190815260200160002054611adf91906127d3565b60008086815260200190815260200160002081905550611aff8482611b44565b91505092915050565b600084848484604051602001611b21949392919061251a565b6040516020818303038152906040528051906020012060001c9050949350505050565b60008282604051602001611b59929190612391565b60405160208183030381529060405280519060200120905092915050565b6040518060e001604052806000815260200160608152602001600081526020016000815260200160608152602001600015158152602001600081525090565b828054611bc2906129c0565b90600052602060002090601f016020900481019282611be45760008555611c2b565b82601f10611bfd57805160ff1916838001178555611c2b565b82800160010185558215611c2b579182015b82811115611c2a578251825591602001919060010190611c0f565b5b509050611c389190611c89565b5090565b828054828255906000526020600020908101928215611c78579160200282015b82811115611c77578251825591602001919060010190611c5c565b5b509050611c859190611c89565b5090565b5b80821115611ca2576000816000905550600101611c8a565b5090565b6000611cb9611cb4846126dd565b6126ac565b905082815260208101848484011115611cd157600080fd5b611cdc84828561297e565b509392505050565b600081519050611cf381612b7e565b92915050565b600081359050611d0881612b95565b92915050565b600082601f830112611d1f57600080fd5b8135611d2f848260208601611ca6565b91505092915050565b600081359050611d4781612bac565b92915050565b600081519050611d5c81612bac565b92915050565b600060208284031215611d7457600080fd5b6000611d8284828501611ce4565b91505092915050565b60008060408385031215611d9e57600080fd5b6000611dac85828601611cf9565b9250506020611dbd85828601611d38565b9150509250929050565b600060208284031215611dd957600080fd5b6000611de784828501611d38565b91505092915050565b600060208284031215611e0257600080fd5b6000611e1084828501611d4d565b91505092915050565b60008060008060808587031215611e2f57600080fd5b6000611e3d87828801611d38565b945050602085013567ffffffffffffffff811115611e5a57600080fd5b611e6687828801611d0e565b935050604085013567ffffffffffffffff811115611e8357600080fd5b611e8f87828801611d0e565b9250506060611ea087828801611d38565b91505092959194509250565b600080600080600060a08688031215611ec457600080fd5b6000611ed288828901611d38565b9550506020611ee388828901611d38565b945050604086013567ffffffffffffffff811115611f0057600080fd5b611f0c88828901611d0e565b935050606086013567ffffffffffffffff811115611f2957600080fd5b611f3588828901611d0e565b925050608086013567ffffffffffffffff811115611f5257600080fd5b611f5e88828901611d0e565b9150509295509295909350565b60008060008060808587031215611f8157600080fd5b6000611f8f87828801611d38565b9450506020611fa087828801611d38565b9350506040611fb187828801611d38565b9250506060611fc287828801611d38565b91505092959194509250565b6000611fda83836122b9565b905092915050565b6000611fee838361235c565b60208301905092915050565b6120038161291f565b82525050565b61201a6120158261291f565b612a3b565b82525050565b600061202b8261272d565b6120358185612773565b9350836020820285016120478561270d565b8060005b8581101561208357848403895281516120648582611fce565b945061206f83612759565b925060208a0199505060018101905061204b565b50829750879550505050505092915050565b60006120a082612738565b6120aa8185612784565b93506120b58361271d565b8060005b838110156120e65781516120cd8882611fe2565b97506120d883612766565b9250506001810190506120b9565b5085935050505092915050565b6120fc81612931565b82525050565b61210b81612931565b82525050565b61211a8161293d565b82525050565b61213161212c8261293d565b612a4d565b82525050565b600061214282612743565b61214c8185612795565b935061215c81856020860161298d565b61216581612b60565b840191505092915050565b600061217b8261274e565b61218581856127a6565b935061219581856020860161298d565b61219e81612b60565b840191505092915050565b60006121b48261274e565b6121be81856127b7565b93506121ce81856020860161298d565b6121d781612b60565b840191505092915050565b60006121ed8261274e565b6121f781856127c8565b935061220781856020860161298d565b80840191505092915050565b6000612220601f836127b7565b91507f4f6e6c7920565246436f6f7264696e61746f722063616e2066756c66696c6c006000830152602082019050919050565b60006122606021836127b7565b91507f54686973204f5243494420697320616c7265616479207265676973746572656460008301527f2e000000000000000000000000000000000000000000000000000000000000006020830152604082019050919050565b600060e0830160008301516122d1600086018261235c565b50602083015184820360208601526122e98282612170565b91505060408301516122fe604086018261235c565b506060830151612311606086018261235c565b50608083015184820360808601526123298282612170565b91505060a083015161233e60a08601826120f3565b5060c083015161235160c086018261235c565b508091505092915050565b61236581612967565b82525050565b61237481612967565b82525050565b61238b61238682612967565b612a69565b82525050565b600061239d8285612120565b6020820191506123ad828461237a565b6020820191508190509392505050565b60006123c982856121e2565b91506123d582846121e2565b91508190509392505050565b60006123ed828661237a565b6020820191506123fd8285612009565b60148201915061240d828461237a565b602082019150819050949350505050565b60006020820190506124336000830184611ffa565b92915050565b600060608201905061244e6000830186611ffa565b61245b602083018561236b565b818103604083015261246d8184612137565b9050949350505050565b600060208201905081810360008301526124918184612020565b905092915050565b600060208201905081810360008301526124b38184612095565b905092915050565b60006020820190506124d06000830184612102565b92915050565b60006020820190506124eb6000830184612111565b92915050565b60006040820190506125066000830185612111565b612513602083018461236b565b9392505050565b600060808201905061252f6000830187612111565b61253c602083018661236b565b6125496040830185611ffa565b612556606083018461236b565b95945050505050565b6000606082019050818103600083015261257981866121a9565b9050818103602083015261258d81856121a9565b905081810360408301526125a181846121a9565b9050949350505050565b600060208201905081810360008301526125c481612213565b9050919050565b600060208201905081810360008301526125e481612253565b9050919050565b6000602082019050612600600083018461236b565b92915050565b600060e08201905061261b600083018a61236b565b818103602083015261262d81896121a9565b905061263c604083018861236b565b612649606083018761236b565b818103608083015261265b81866121a9565b905061266a60a0830185612102565b61267760c083018461236b565b98975050505050505050565b6000604082019050612698600083018561236b565b6126a5602083018461236b565b9392505050565b6000604051905081810181811067ffffffffffffffff821117156126d3576126d2612b31565b5b8060405250919050565b600067ffffffffffffffff8211156126f8576126f7612b31565b5b601f19601f8301169050602081019050919050565b6000819050602082019050919050565b6000819050602082019050919050565b600081519050919050565b600081519050919050565b600081519050919050565b600081519050919050565b6000602082019050919050565b6000602082019050919050565b600082825260208201905092915050565b600082825260208201905092915050565b600082825260208201905092915050565b600082825260208201905092915050565b600082825260208201905092915050565b600081905092915050565b60006127de82612967565b91506127e983612967565b9250827fffffffffffffffffffffffffffffffffffffffffffffffffffffffffffffffff0382111561281e5761281d612aa4565b5b828201905092915050565b600061283482612971565b915061283f83612971565b92508260ff0382111561285557612854612aa4565b5b828201905092915050565b600061286b82612967565b915061287683612967565b92508261288657612885612ad3565b5b828204905092915050565b600061289c82612967565b91506128a783612967565b9250817fffffffffffffffffffffffffffffffffffffffffffffffffffffffffffffffff04831182151516156128e0576128df612aa4565b5b828202905092915050565b60006128f682612967565b915061290183612967565b92508282101561291457612913612aa4565b5b828203905092915050565b600061292a82612947565b9050919050565b60008115159050919050565b6000819050919050565b600073ffffffffffffffffffffffffffffffffffffffff82169050919050565b6000819050919050565b600060ff82169050919050565b82818337600083830152505050565b60005b838110156129ab578082015181840152602081019050612990565b838111156129ba576000848401525b50505050565b600060028204905060018216806129d857607f821691505b602082108114156129ec576129eb612b02565b5b50919050565b60006129fd82612967565b91507fffffffffffffffffffffffffffffffffffffffffffffffffffffffffffffffff821415612a3057612a2f612aa4565b5b600182019050919050565b6000612a4682612a57565b9050919050565b6000819050919050565b6000612a6282612b71565b9050919050565b6000819050919050565b6000612a7e82612967565b9150612a8983612967565b925082612a9957612a98612ad3565b5b828206905092915050565b7f4e487b7100000000000000000000000000000000000000000000000000000000600052601160045260246000fd5b7f4e487b7100000000000000000000000000000000000000000000000000000000600052601260045260246000fd5b7f4e487b7100000000000000000000000000000000000000000000000000000000600052602260045260246000fd5b7f4e487b7100000000000000000000000000000000000000000000000000000000600052604160045260246000fd5b6000601f19601f8301169050919050565b60008160601b9050919050565b612b8781612931565b8114612b9257600080fd5b50565b612b9e8161293d565b8114612ba957600080fd5b50565b612bb581612967565b8114612bc057600080fd5b5056fea2646970667358221220b8a36f56b2a70c7ac90c988b170d78c7109d07eb9be8db060f92003f1a858c5964736f6c63430008000033",
  "linkReferences": {},
  "deployedLinkReferences": {}
}